{
  "contractName": "MyContract",
  "abi": [
    {
      "constant": true,
      "inputs": [
        {
          "internalType": "address",
          "name": "",
          "type": "address"
        }
      ],
      "name": "user_account",
      "outputs": [
        {
          "internalType": "uint256",
          "name": "",
          "type": "uint256"
        }
      ],
      "payable": false,
      "stateMutability": "view",
      "type": "function"
    },
    {
      "constant": false,
      "inputs": [],
      "name": "deposit",
      "outputs": [],
      "payable": true,
      "stateMutability": "payable",
      "type": "function"
    },
    {
      "constant": false,
      "inputs": [],
      "name": "withdraw",
      "outputs": [],
      "payable": false,
      "stateMutability": "nonpayable",
      "type": "function"
    }
  ],
  "bytecode": "0x608060405234801561001057600080fd5b50610328806100206000396000f3fe6080604052600436106100345760003560e01c80633ccfd60b1461003957806360e0049c14610050578063d0e30db0146100b5575b600080fd5b34801561004557600080fd5b5061004e6100bf565b005b34801561005c57600080fd5b5061009f6004803603602081101561007357600080fd5b81019080803573ffffffffffffffffffffffffffffffffffffffff169060200190929190505050610241565b6040518082815260200191505060405180910390f35b6100bd610259565b005b60008060003373ffffffffffffffffffffffffffffffffffffffff1673ffffffffffffffffffffffffffffffffffffffff168152602001908152602001600020541161010a57600080fd5b60008060003373ffffffffffffffffffffffffffffffffffffffff1673ffffffffffffffffffffffffffffffffffffffff16815260200190815260200160002054905060008060003373ffffffffffffffffffffffffffffffffffffffff1673ffffffffffffffffffffffffffffffffffffffff1681526020019081526020016000208190555060003373ffffffffffffffffffffffffffffffffffffffff166108fc839081150290604051600060405180830381858888f1935050505090508061023d576040517f08c379a000000000000000000000000000000000000000000000000000000000815260040180806020018281038252600f8152602001807f5472616e73666572206661696c6564000000000000000000000000000000000081525060200191505060405180910390fd5b5050565b60006020528060005260406000206000915090505481565b60008060003373ffffffffffffffffffffffffffffffffffffffff1673ffffffffffffffffffffffffffffffffffffffff1681526020019081526020016000205410156102a557600080fd5b346000803373ffffffffffffffffffffffffffffffffffffffff1673ffffffffffffffffffffffffffffffffffffffff1681526020019081526020016000206000828254019250508190555056fea265627a7a723158206cade0ce344d7cad6057507c84d4fa41b5a66ff891a5d004cf03f2952f0658d064736f6c63430005100032",
  "source": "// SPDX-License-Identifier: GPL-3.0\n\npragma solidity 0.5.16;\n\ncontract MyContract {\n    mapping(address=>uint) public user_account;\n    function deposit() public payable{\n        require(user_account[msg.sender]>=0);\n        user_account[msg.sender]+=msg.value;\n    }\n    function withdraw() public {\n    //     require(user_account[msg.sender]>0);\n    //     // require(user_account[msg.sender]>amt);\n    // //payable(msg.sender).transfer(address(this).balance);\n    // (bool ca,)=payable(msg.sender).call{value: address(this).balance}(\"\");\n    // require(ca,\"Transfer fail\");\n    // user_account[msg.sender]=0;\n\n         require(user_account[msg.sender] > 0);\n        uint amountToWithdraw = user_account[msg.sender];\n        user_account[msg.sender] = 0;\n        \n        bool success = msg.sender.send(amountToWithdraw);\n        require(success, \"Transfer failed\");\n    }\n    }",
  "sourcePath": "/Users/smraddhi/Documents/Blockchain/Transaction/contracts/ether.sol",
  "compiler": {
    "name": "solc",
    "version": "0.5.16+commit.9c3226ce.Emscripten.clang"
  },
  "schemaVersion": "3.4.16",
  "updatedAt": "2023-10-12T09:10:46.005Z",
  "devdoc": {
    "methods": {}
  },
  "userdoc": {
    "methods": {}
  }
}