{
  "contractName": "Migrations",
  "abi": [
    {
      "inputs": [],
      "stateMutability": "nonpayable",
      "type": "constructor"
    },
    {
      "inputs": [],
      "name": "lastCompletedMigration",
      "outputs": [
        {
          "internalType": "uint256",
          "name": "",
          "type": "uint256"
        }
      ],
      "stateMutability": "view",
      "type": "function"
    },
    {
      "inputs": [],
      "name": "owner",
      "outputs": [
        {
          "internalType": "address",
          "name": "",
          "type": "address"
        }
      ],
      "stateMutability": "view",
      "type": "function"
    },
    {
      "inputs": [
        {
          "internalType": "uint256",
          "name": "completed",
          "type": "uint256"
        }
      ],
      "name": "setCompeleted",
      "outputs": [],
      "stateMutability": "nonpayable",
      "type": "function"
    },
    {
      "inputs": [
        {
          "internalType": "address",
          "name": "newAddress",
          "type": "address"
        }
      ],
      "name": "upgrade",
      "outputs": [],
      "stateMutability": "nonpayable",
      "type": "function"
    }
  ],
  "bytecode": "0x608060405234801561000f575f80fd5b50335f806101000a81548173ffffffffffffffffffffffffffffffffffffffff021916908373ffffffffffffffffffffffffffffffffffffffff16021790555061037e8061005c5f395ff3fe608060405234801561000f575f80fd5b506004361061004a575f3560e01c80630900f0101461004e5780638da5cb5b1461006a578063c088aad014610088578063fbdbad3c146100a4575b5f80fd5b6100686004803603810190610063919061026f565b6100c2565b005b610072610188565b60405161007f91906102a9565b60405180910390f35b6100a2600480360381019061009d91906102f5565b6101ab565b005b6100ac61020b565b6040516100b9919061032f565b60405180910390f35b5f8054906101000a900473ffffffffffffffffffffffffffffffffffffffff1673ffffffffffffffffffffffffffffffffffffffff163373ffffffffffffffffffffffffffffffffffffffff1614610118575f80fd5b5f8190508073ffffffffffffffffffffffffffffffffffffffff1663c088aad06001546040518263ffffffff1660e01b8152600401610157919061032f565b5f604051808303815f87803b15801561016e575f80fd5b505af1158015610180573d5f803e3d5ffd5b505050505050565b5f8054906101000a900473ffffffffffffffffffffffffffffffffffffffff1681565b5f8054906101000a900473ffffffffffffffffffffffffffffffffffffffff1673ffffffffffffffffffffffffffffffffffffffff163373ffffffffffffffffffffffffffffffffffffffff1614610201575f80fd5b8060018190555050565b60015481565b5f80fd5b5f73ffffffffffffffffffffffffffffffffffffffff82169050919050565b5f61023e82610215565b9050919050565b61024e81610234565b8114610258575f80fd5b50565b5f8135905061026981610245565b92915050565b5f6020828403121561028457610283610211565b5b5f6102918482850161025b565b91505092915050565b6102a381610234565b82525050565b5f6020820190506102bc5f83018461029a565b92915050565b5f819050919050565b6102d4816102c2565b81146102de575f80fd5b50565b5f813590506102ef816102cb565b92915050565b5f6020828403121561030a57610309610211565b5b5f610317848285016102e1565b91505092915050565b610329816102c2565b82525050565b5f6020820190506103425f830184610320565b9291505056fea26469706673582212209f46b62cb40fc0c1a3eeba3f645f30968e14ced6076020828dcd7c4a147fb14664736f6c63430008150033",
  "immutableReferences": {},
  "source": "//SPDX-License-Identifier:MIT\npragma solidity ^0.8.0;\ncontract Migrations{\n    address public owner;\n    uint public lastCompletedMigration;\n\n    constructor() \n    {\n        owner=msg.sender;\n    }\n\n    modifier restricted(){\n        require(msg.sender==owner);\n        _;\n    }\n\n    function setCompeleted(uint completed) public restricted{\n        lastCompletedMigration=completed;\n    }\n\n    function upgrade(address newAddress) public  restricted{\n        Migrations upgraded=Migrations(newAddress);\n        upgraded.setCompeleted(lastCompletedMigration);\n    }\n}\n",
  "sourcePath": "/Users/smraddhi/Documents/Blockchain/truffle-project/contracts/Migrations.sol",
  "compiler": {
    "name": "solc",
    "version": "0.8.21+commit.d9974bed.Emscripten.clang"
  },
  "schemaVersion": "3.4.16",
  "updatedAt": "2023-10-15T18:23:44.246Z",
  "devdoc": {
    "kind": "dev",
    "methods": {},
    "version": 1
  },
  "userdoc": {
    "kind": "user",
    "methods": {},
    "version": 1
  }
}